:080000000C945F000C94000059
:100008000C9400000C9400000C9400000C94000068
:100018000C9400000C9400000C9400000C94000058
:100028000C9400000C9400000C9400000C94000048
:100038000C9400000C9400000C9400000C94000038
:100048000C9400000C9400000C9400001027E803A6
:1000580064000A00010000100001100001002020C7
:10006800202043414E482042414F20202020004E6E
:100078006869657420646F20616E20746F616E001A
:100088004E6869657420646F3A202564000080C05A
:1000980001002D4E414E00494E46000011006001FE
:1000A80066001100710177000200960196000100B8
:1000B8009A0198000000F894EE27ECBBF1E0FBBF32
:1000C800EBBFE5BF8DE0A2E0BB27ED938A95E9F78A
:1000D80080E094E0A0E6ED930197E9F7E4EAF0E028
:1000E80085919591009761F0A591B591059015902E
:1000F800BF01F00105900D920197E1F7FB01F0CFE8
:10010800EFE5EDBFE4E0EEBFC0E6D1E00C94B70048
:10011800AA93E881E064E7B985E38A95F1F7369A0E
:10012800349BFECF349AE4B1F5B10C9471030E946C
:1001380029050E9413030E941F050E940A04B8970C
:100148001CF0A0E6B1E002C0A1E7B1E00E943403D0
:10015800E0E0EA93A1E00E940603AC81BD810E9421
:10016800340326960895E0E0EBBBEABBE8BBE7BBA7
:10017800E5BBE4BBE2BBE1E0E1BBE0E0E3BFE2BF3B
:10018800ECBFEFBDEEBDEDBDECBDE7BDE6BDEBBD23
:10019800EABDE9BDE8BDE2BDE5BDE4BDE3BDE5BF3F
:1001A800E4BFE9BFEAB9E0E8E8B9E0E0E0BFE0E4CD
:1001B800E7B9E4E8E6B9E0E0EDB9E6BFA0E10E94FE
:1001C8004503A0E0A5DF2F01662777270E94410499
:1001D800A0E0B0E08AEF93E40E946F04DF01CB0156
:1001E800E0E0F0E060E874E40E94BD04E09382017E
:1001F800F09383016093840170938501E6E8F1E050
:10020800FA93EA93E8E8F0E0FA93EA930E948C0301
:100218000E9412050E94240584E00E94B1022896DB
:10022800E6E8F1E0FA93EA93A0918201B0918301A4
:1002380080918401909185017ADF0E948C03B897A0
:100248008CF07724E5E07E1660F4909AA4E6B0E09E
:100258000E94D1039098A4E6B0E00E94D103739461
:10026800F1CF05C09098A8EEB3E00E94D103A9CFC2
:10027800FFCFBA93AA931A930A93AA81BB811296C5
:100288000E941705309759F1AA81BB8114960E94E4
:1002980017058F01309761F00230E0E01E0798F0F3
:1002A800F80131978F01AA81BB811496ED93FC93D5
:1002B800AA81BB811296ED91FD913196FE93EE9342
:1002C8003197AC81A083AA81BB810E941705FF23C7
:1002D8002AF0ED91FD913196FE93EE9306C0AA8126
:1002E800BB81EFEFFFEFED93FC9319810881259611
:1002F8000895BA93AA9326970E942E0510E0AC851C
:10030800BD85E0E0F0E0ED93FC93EA89FB89319646
:10031800EA8BFB8B3197E4912E2FE03009F415C15D
:10032800E12FE03039F4253211F411E002C00E94C7
:1003380097030AC1E130A9F4253219F40E94970302
:1003480002C112E040E000E02D3211F401E0FCC0EF
:100358002B3211F44BE2F8C0203211F440E2F4C021
:1003680002C0E23039F450E013E0203311F40068A1
:10037800EBC003C0E33009F0E7C0203310F02A33A4
:1003880008F007C0AAE05A9F502DE22FE0535E0FF5
:10039800DBC0E22FE33649F40E949E03E889F9891D
:1003A800A481AA930E94A403CEC0E33741F40E941B
:1003B8009E030E94AA030E9473031E2F0AC0E037FF
:1003C80061F40E949E030E94AA030E947F031E2FCD
:1003D800086002600F7730E034C0E43611F0E93687
:1003E80011F4046002C0E53731F4E4E5F0E0EE838F
:1003F800FF8315E00CC0E83511F4086003C0E83746
:1004080009F0A1C0EEE5F0E0EE83FF8314E002FFFF
:1004180014C00E949E030E94B403AB85AA233AF439
:10042800EA85FB850E940605EA87FB874DE2403096
:1004380011F01F5F01C00B7F04C00E949E030E9441
:10044800B40300FD11C0151778F407FF08C002FFB8
:1004580004C00B7F242F115001C020E301C020E20B
:100468000E9497035150EFCF312F01FF17C0303052
:10047800A1F003FF06C0EE81FF812591EE83FF8383
:1004880005C0AE81BF812D91AE83BF830E949703C3
:10049800503009F051503150EACF4BC020E3EE8183
:1004A800FF810E941B05E887F987EE81FF8132965C
:1004B800EE83FF83E885F985AA85BB85AE17BF075C
:1004C80050F02F5FA885B985EA85FB85EA1BFB0BF1
:1004D800EA87FB87EFCF2A3328F003FF02C0295FA2
:1004E80001C0295D04FD1AC0213320F4A885B9850F
:1004F800119709F409C0531710F000FF01C013C089
:1005080020E207FF0BC020E3006102FF07C00B7F5A
:100518004A930E94A403503009F051500E94970357
:10052800503009F051503150A885B985129708F01C
:10053800B5CF00FF08C0503031F05150E0E2EA93E7
:100548000E94A403F8CF10E0E0CEAC85BD850E94E0
:1005580017050E94350564960895FF92F82E269790
:100568000E9430050E94BC03309719F4EFEFFFEFAB
:1005780023C0DE0116960E9402058D010E94BC036D
:10058800EE83FF83E0E0E887E987DE011A960E94A0
:1005980002050E941705FA93EA931A930A93EDE36A
:1005A800F1E0FA93EA93DE011A96A3DE9F01AE8189
:1005B800BF81E0E0EC93F9010E9437052A96FF908D
:1005C8000895AA93E5B3EF70AE2FE881E07FEA2B98
:1005D800E5BB8BE18A95F1F7979A8BE18A95F1F75C
:1005E80097988BE18A95F1F778C0AA93A881E9DFFB
:1005F800E881E295E883A881E4DF88EC90E0019740
:10060800F1F76BC0AA93E881F0E0EA56FE4FE0816B
:10061800A981AE0FEADF6980988022960895A2E04A
:100628000E94C303ACE0E1DFA1E00E94C303E0E065
:100638009E2E6E2E0895AA93A881AA3011F06814F0
:1006480048F0E0E0EA939394A92DDCDFA881AA3072
:1006580009F443C06394969AA881C7DF96983DC071
:10066800BA93AA931A93A981BA81ED91A983BA83FF
:100678001E2FE03019F0A12FDEDFF5CF1881239669
:100688000895AA93E4B3E06FE4BB8F9A8E9A8D9A8B
:100698009798969895988880E881E058E093980113
:1006A800E881E054E0939901A4E1B0E00E94D1030D
:1006B8000E94C9030E94C9030E94C903A0E281DF06
:1006C80080E991E00197F1F7A8E28FDFA4E08DDFE0
:1006D800A5E88BDFA6E089DFA2DF21960895BA930B
:1006E800AA93A991B991EE27FF276D91662311F07E
:1006F8003196FBCF0895BA93AA93AA27BB27E9910D
:10070800F9910590002011F01196FBCFFD01089595
:10071800E0918201F09183016091840170918501DB
:100728000E940A0408952A93AD85BE85EF85F8894D
:1007380009950895E889F9893497E88BF98B089524
:10074800AD85BE85EF85F88909950895A889B98989
:1007580014960E941705EE83FF83AE81BF8108952A
:10076800A889B98914960E941705EA87FB87089516
:10077800DE011C960E9402050E94170508950E943A
:10078800F902A3E0B0E00C94D103A0E30E94E502D3
:1007980080E991E00197F1F70895109639F080EA21
:1007A8009FE00197F1F7A8951197C9F70895552388
:1007B80042F4503811F4E0FF04C03196691F791FE4
:1007C8006BF050E8572711F45F9373C05F3F31F027
:1007D800660F000C57956795752F08955F93002055
:1007E8000AF073C06CC050E8192E1522880F991FA3
:1007F8009527550F879550E8072E0522660F771F16
:100808007527550F67950895689401C0E8945F931C
:10081800F2DF703818F07F3F08F44BC056E1571BE1
:10082800AAF4519558300EF4593030F0EFEFFFEF3D
:100838006FEF7FE777F91AC077275523B9F0EE0FE6
:10084800FF1F661F771F5A95D1F710C077275830BA
:1008580028F0EF2FF62F672F5850F9CF552331F096
:1008680076956795F795E7955A95D1F700200AF49C
:10087800CDD05F910895689401C0E89430976040A6
:100888007040B1F0002426F0772312F40094BED013
:10089800172E7EE1112032F07A95EE0FFF1F661FAA
:1008A800111CF9CFEF2FF62F612D5F938ADF5F912F
:1008B8000895EE27FF27662777275F910895EFEFC2
:1008C800FFEF6FE77FEF5F910895EFEFFFEF6FE7BF
:1008D8007FE75F9108955F9386DF703851F3903812
:1008E80041F301240894791F23F41CF300203AF300
:1008F800ECCF0F921F932F933F934F9311272227EB
:100908009927689FA0018F9F302D410D591F6B9F1C
:10091800300D411D591F8E9F27D0BF9F25D06A9F3C
:1009280023D0BE9F1DD0AF9F1BD0AE9F110D291F96
:10093800391F491F591FE32FF42F652F522F4F914D
:100948003F912F911F910F9066232AF0550FEE1FAC
:10095800FF1F661F02C073954BF229DF5F91089550
:10096800100D211D391F02C0200D311D491F591FAF
:1009780008955F9338DF703821F411200AF49FCF6F
:10098800A4CF903809F495CF01240894970B1BF451
:10099800D4F30020F3CF792F1F932F933F934F93D6
:1009A80011241127222733274427552790E2AE1711
:1009B800BF078607410730F0AE1BBF0B860B410B04
:1009C800089401C08894551F221F331F111CAA1FA9
:1009D800BB1F881F441F9A9551F7F901612D4F914C
:1009E8003F912F911F91662332F0550FEE1FFF1F85
:1009F800661F7A9543F2DBDE5F9108950024AF0D00
:100A0800B01D0895F195E195F0400895F095609531
:100A18007095E195FF4F6F4F7F4F08956F2F660FC9
:100A2800660B762F0895ED91FC9111970895059026
:100A3800F491E02D0895E881F9816A817B81089518
:100A48007A936A93FA93EA9308959A938A93BA9356
:100A5800AA9308955A934A933A932A931A930A9316
:100A680008955D814C813B812A811981088108950F
:00000001FF
